:020000040800F2
:1000000000180020BD360008ED070008EF070008C3
:1000100000000000000000000000000000000000E0
:10002000000000000000000000000000F1070008D0
:100030000000000000000000F3070008F5070008BA
:100040003D3700083D3700083D3700083D370008C0
:100050003D3700083D3700083D3700083D370008B0
:100060003D3700083D3700083D3700083D370008A0
:100070003D3700083D3700083D3700083D37000890
:100080003D37000800000000000000003D37000878
:10009000000000003D3700083D3700083D370008EC
:1000A000000000003D3700083D3700083D370008DC
:1000B0003D370008000000003D370008FD0700083C
:1000C000002934D00123002210B488422CD301240B
:1000D0002407A14204D2814202D209011B01F8E7A0
:1000E000E400A14204D2814202D249005B00F8E759
:1000F000884201D3401A1A434C08A04202D3001B85
:100100005C0822438C08A04202D3001B9C082243B7
:10011000CC08A04202D3001BDC082243002803D0F5
:100120001B0901D00909E3E7101C10BC704701B599
:10013000002000F00BF802BD0029F8D003B5FFF74E
:10014000C1FF0EBC4243891A1847C0467047C046DB
:1001500010B5064C2378002B07D1054B002B02D09D
:10016000044800E000BF0123237010BD740100208B
:100170000000000098370008044B10B5002B03D096
:100180000349044800E000BF10BDC0460000000065
:10019000780100209837000800B589B010220021AE
:1001A00004A803F0F1FA124B59698020C0030143FF
:1001B00059615A6902400092009A59698020800270
:1001C000014359615A6902400192019A5A6980219A
:1001D000C9020A435A615B690B400293029B0223E6
:1001E000FF33039303A9034802F066FB09B000BD87
:1001F000001002400004004810B50E480E4B03608A
:1002000082235B00436000238360C0229200C260AF
:10021000036143618022D2028261C361036243624F
:1002200083620722C26203630833436301F024FD43
:1002300010BDC046D80300200030014030B587B063
:100240001022002102A803F09FFA0822002168462C
:1002500003F09AFA0D4C8023DB05236000256560CE
:10026000A560E5602561A561200001F0E3FD802324
:100270005B01029302A9200001F002FE00950195A6
:100280006946200001F088FE07B030BD3C04002024
:1002900010B50648064B03600023037143714361A8
:1002A00083610133036201F0B4FC10BDB40300208C
:1002B0000030024010B598B01C2200210DA803F0B8
:1002C00063FA1022002107A803F05EFA1822002129
:1002D00001A803F059FA01240B9405230C93033B66
:1002E000149380235B021593A0239B03169304238E
:1002F00017930BA801F076FE0723079308940023B9
:1003000009930A93002107A802F03AF980239B027F
:1003100001938023069301A802F0FCF918B010BDE8
:1003200010B502F0ABFAFFF7C5FFFFF735FFFFF797
:1003300063FFFFF783FF00F005F8FFF7A9FFFEE773
:100340007047000010B500221149124802F00AFC63
:10035000002811D110490F4802F020FC00280ED1CE
:100360000E490C4803F070F900280BD1094802F03F
:100370001EFC002809D110BDFFF7E2FFEAE7FFF7F6
:10038000DFFFEDE7FFF7DCFFF0E7FFF7D9FFF2E76C
:10039000000000207C0400206400002050000020A9
:1003A000022804D005D8002800D002207047012080
:1003B000FCE70220FAE710B5FFF77CFF10BD000054
:1003C00010B588B004001422002103A803F0DCF962
:1003D0002268174B9A4201D008B010BD154C6269D3
:1003E000802189020A43626163690B400193019B8A
:1003F00080231B02039302230493013306930233E9
:100400000793902003A9C00502F056FAE269802103
:1004100009040A43E261E3690B400293029B002254
:1004200000211F2002F018FB1F2002F045FBD3E73C
:10043000005C00400010024010B5010087239B00C3
:10044000C058ED31FF3102F0CFFB10BD10B50300F5
:10045000872292008058CA00521A92009B181933C2
:10046000FF331A6802F0F4FB10BD10B503008722B9
:1004700092008058CA00521A92009B189A6B02F0A0
:1004800024FC10BD10B587239B00C05802F0B7FCB8
:1004900010BD70B504008368022B09D18725AD001B
:1004A0000121605902F096FC605902F070FC70BDA9
:1004B000FFF746FFF2E7000010B5040087239B001A
:1004C000C05802F08AFCA369002B04D0024A1369C9
:1004D00006210B43136110BD00ED00E010B50400D0
:1004E0008369002B05D187239B00E05802F080FC34
:1004F00010BD044A136906218B431361FFF75BFFAC
:10050000F1E7C04600ED00E070B504001D48872308
:100510009B00C4500433E0501B4B0360082343602E
:10052000063B8360036100238361C361036200F0C3
:10053000E1F9002823D18825AD00182300220021ED
:10054000605901F049FB582300228021605901F0D5
:1005500043FBC02300228121605901F03DFB882329
:100560005B0000220121605901F036FB60598023B5
:100570005B000022822101F02FFB002070BDFFF7FD
:10058000DFFED8E7A0060020005C004010B58823FD
:100590009B00C05800F00EFAFFF702FF10BD10B527
:1005A00014001A0088239B00C058230000F02AFA88
:1005B000FFF7F6FE10BD10B588239B00C05800F071
:1005C000E9FBFFF7EDFE10BD10B588239B00C05876
:1005D00000F0F0FDFFF7E4FE10BD10B588239B008E
:1005E000C05800F04BFEFFF7DBFE10BD88239B00D8
:1005F000C3584AB2002A09DB7F221140CA00511AAF
:1006000089005B180B33FF33187870477F22114045
:10061000CA00511A89005B182A331878F5E710B51B
:1006200088239B00C05800F0D1F9FFF7B9FE10BD38
:1006300010B58824A400005900F0AAFEFFF7B0FE10
:1006400010BD10B58824A400005900F09FFCFFF7EE
:10065000A7FE10BD10B588239B00C05800F09EFD7A
:1006600010BD000000487047900100207047000056
:1006700012230B80004870471C00002004230B80CD
:10068000004870473000002030B500230AE05D00CC
:1006900037344C5500015C0001340C1900252570DD
:1006A0000133DBB2934206D2040F092CEFD85D0070
:1006B00030344C55EEE730BD70B50B4B18680B4B22
:1006C0001D680B4B1B68C018002800D170BD094C79
:1006D000A11C0822FFF7D8FF2100123104222800B4
:1006E000FFF7D2FFF2E7C046ACF7FF1FB0F7FF1FDE
:1006F000B4F7FF1F3400002010B51A230B80FFF75A
:10070000DBFF014810BDC0463400002010B50A00D0
:10071000002805D10549064802F021FE034810BD16
:100720000249034802F01BFEF8E7C046C00800205B
:10073000B037000810B50A00034C2100034802F04E
:100740000EFE200010BDC046C0080020BC370008C7
:1007500010B50A00002805D10549064802F0FFFD42
:10076000034810BD0249034802F0F9FDF8E7C0460E
:10077000C0080020C437000810B50A00002805D1C1
:100780000549064802F0EBFD034810BD0249034845
:1007900002F0E5FDF8E7C046C0080020D0370008A9
:1007A000002070470020704710B50100044C200065
:1007B00002F05EFF200002F062FF002010BDC04684
:1007C0007C04002010B5064C00220649200002F0EF
:1007D00044FF0549200002F04BFF002010BDC04639
:1007E0007C040020E00D0020C00A00207047FEE7D6
:1007F0007047704710B502F051F810BD10B50248AF
:1008000001F05CF910BDC046A006002082B00A4B82
:10081000996901221143996199690A400092009AED
:10082000DA69802149050A43DA61DB690B400193EB
:10083000019B02B07047C0460010024082B00268BF
:10084000074B9A4201D002B07047064A51694023D3
:1008500019435161526913400193019BF3E7C0466C
:10086000003002400010024010B588B0040014228D
:10087000002103A802F088FF2268124B9A4201D09F
:1008800008B010BD104B9969802040010143996167
:100890009A6902400192019A5A69802189020A43A9
:1008A0005A615B690B400293029BF0230393EE3B7A
:1008B000049301330693902003A9C00501F0FCFFC7
:1008C000DEE7C046003001400010024082B00268FE
:1008D0008023DB059A4201D002B07047044AD169F7
:1008E00001231943D161D26913400193019BF3E7BE
:1008F0000010024070B5041E58D0EA23FF33C35CD9
:10090000002B1AD0EA23FF330322E254002260684E
:10091000904219D9D3009B1A9B00E3181900293182
:100920000120087001390A7018002B300021017075
:1009300059639963D9630132E9E7E933FF33002250
:10094000C254FFF73DFDDDE7002214E0D3009B1AFF
:100950009B00E3181D000A35FF3500212970013D79
:100960002A700335297009352960043529601D3343
:10097000FF33196001329042E8D8402301222168F8
:10098000CA5200222168CA524421206842520C31C6
:1009900020684252064A2168CA5200221C3BE25497
:1009A0000122EA23FF33E254002070BD0120FCE75E
:1009B00000BFFFFF016858228B5A034803439BB2D4
:1009C0008B5200207047C0460080FFFFF4235B007D
:1009D000C35C012B13D0F4235B000122C254002915
:1009E0000AD19D3BFF3B7F320168CA52F4235B0072
:1009F0000022C254002070472423C154F6E702208D
:100A0000F9E70000F0B54DB2002D2EDB7F260E4039
:100A1000F400A41BA4000934FF3404197F263140DC
:100A20002170ED0F6570E260E370F4235B00C35C3E
:100A3000012B00D18DE1F4235B000122C254E37845
:100A4000022B00D17AE018D8002B25D0012B2FD112
:100A50002278920003689C4662441388BE4919407C
:100A6000BE4B0B439BB2138022E07F260E40F40066
:100A7000A41BA40028340419D0E7032B18D1227832
:100A8000920003689C4662441388B3491940B44BF2
:100A90000B439BB213800BE02278920003689C46C4
:100AA00062441388AC491940AE4B0B439BB2138090
:100AB00023789A0001688C4662441188AA4D294027
:100AC0001943AA4B0B439BB21380A37A002B00D08F
:100AD0008EE06378002B3ED0A28805685023EB5A45
:100AE0002178C9005B185B198021C9008C466344DA
:100AF00001218A431A8023789B000268944663444C
:100B00001A88520606D51A8897491140984A0A430E
:100B100092B21A802178890003689C4661440B8850
:100B2000944A134020225A40904B13439BB20B80AF
:100B3000F4235B000022C2540020F0BD2278920012
:100B400003689C466244138883491940874B0B43D2
:100B50009BB21380ACE7A28805685026AB5B217876
:100B6000C9005B185B1984498C46634401218A43A0
:100B70001A8001688B5B2278D2009B185B187F4A31
:100B800094466344E1683E2929D94A0992B2C906CC
:100B900001D1013A92B2920292B279490A431A8083
:100BA00023789B000268944663441A88520406D551
:100BB0001A886D491140734A0A4392B21A8022780A
:100BC000920003689C46624411886F4B1940C02311
:100BD0009B015940654B0B439BB21380A8E74A0821
:100BE00092B2C90701D5013292B292021A80D7E7B8
:100BF0002278920003689C46624413886349194036
:100C0000634B0B439BB21380E28805685027EB5B74
:100C10002178C9005B185B198021C9008C466344A8
:100C20000126B2431A8022890568EB5B2178C9004E
:100C30005B185B1950498C466344B2431A80637851
:100C4000002B44D123789B000268944663441A88A1
:100C5000520406D51A88444911404A4A0A4392B2BE
:100C60001A8023789B000268944663441A885206CF
:100C700006D51A883C4911403D4A0A4392B21A806F
:100C80002278920003689C466244138836491940D2
:100C9000374B0B439BB213802178890003689C4635
:100CA00061440B88384A1A40C0239B0153402F4AA5
:100CB00013439BB20B8023789B0001688C466344EE
:100CC00019882C4C21400A4392B21A8030E72378CD
:100CD0009B000268944663441A88520406D51A8819
:100CE00021491140274A0A4392B21A8023789B0077
:100CF0000268944663441A88520606D51A881A492F
:100D000011401B4A0A4392B21A802278920003686B
:100D10009C4662441388144919401A4B0B439BB2FA
:100D200013802178890003689C4661440B88114A2E
:100D300013400E4A13439BB20B8023789B0001683B
:100D40008C4663441988104C21400A4392B21A80A1
:100D5000EEE60220F1E6C0460F0900008084FFFFA6
:100D60008086FFFF8082FFFF0F0F00008080FFFF63
:100D7000C080FFFFBF8FFFFF0404000006040000D7
:100D80000080FFFF80C0FFFF8FBFFFFF0F0E00003E
:100D90008081FFFF10B50C004AB2002A3DDB7F21A5
:100DA0002140CB005B1A9B000933FF33C3187F211E
:100DB00021401970D20F5A70F4225200825C012A2D
:100DC00000D1D5E0F4225200012181549A7A002A00
:100DD00047D15A78002A28D01A78920001688C46A8
:100DE00062441188490606D51188624C0C4062495C
:100DF000214389B211801A78920003689C466244AC
:100E000013885E4919405E4B0B439BB21380F42359
:100E10005B000022C254002010BD7F212140CB0086
:100E20005B1A9B002833C318C1E71A789200016847
:100E30008C4662441188490406D511884D4C0C40FB
:100E40005049214389B211801A78920003689C4668
:100E5000624413884C491940494B0B439BB21380A1
:100E6000D5E75A78002A41D11A78920001688C4659
:100E700062441188490406D511883E4C0C40414912
:100E8000214389B211801A78920001688C4662442D
:100E90001188490606D51188364C0C403649214345
:100EA00089B21180197889000268944661440A88E1
:100EB000304C1440304A224392B20A801C78A4007D
:100EC00002689446644422882F490A402C490A4308
:100ED00092B222801B789B000268944663441A8871
:100EE000264C2240114389B2198090E71A7892006B
:100EF00001688C4662441188490406D511881D4C4E
:100F00000C402049214389B211801A78920001686F
:100F10008C4662441188490606D51188154C0C4050
:100F20001549214389B211801978890002689446D5
:100F300061440A880F4C1440124A224392B20A803C
:100F40001C78A40002689446644422880B490A4035
:100F50000B490A4392B222801B789B000268944698
:100F600063441A88084C2240114389B219804EE725
:100F7000022051E70F0F0000C080FFFFBF8FFFFF6F
:100F80008080FFFF80C0FFFF8FBFFFFF30B57F2451
:100F90002140CC00641AA400041925001935FF353E
:100FA0002A6022001D32FF321360083500222A60B9
:100FB000173D2A7022000932FF3211701534FF34B8
:100FC0002268934243D9CC00641AA40004191D344A
:100FD000FF349B1A2360CB005B1A9B00C3181333AA
:100FE000FF331B78002B45D104685033E55ACB0002
:100FF0005B1A9B00C3180933FF331B78DB00EB1827
:101000001C19614B9C4664443E2A2AD953099BB261
:10101000D20601D1013B9BB29B029BB25B4A1343B8
:1010200023800268CB00591A890040180930FF302C
:1010300003789B00D2181188554B1940C0239B019F
:101040005940544B0B439BB21380002030BDCA0063
:10105000521A920082181D32FF32002414601A00C6
:10106000B9E753089BB2D20701D501339BB29B026B
:101070002380D6E7CB005B1A9B00C3180A33FF33EB
:101080001B78002B26D104685033E55ACB005B1A3D
:101090009B00C3180933FF331B78DB00EB181C19C6
:1010A0003D4B9C4664443E2A0BD953099BB2D5065E
:1010B00001D1013B9BB29B029BB2344D2B43238059
:1010C0000AE053089BB2D50701D501339BB29B02BE
:1010D000238001E0012B26D0CB005B1A9B00C318B4
:1010E0000A33FF331B78002B38D104685033E55A9C
:1010F000CB005B1A9B00C3180933FF331B78DB005E
:10110000EB181C19204B9C4664443E2A1DD95309F8
:101110009BB2D20601D1013B9BB29B029BB21B4A00
:10112000134323807DE704684F33E55ACB005B1AF5
:101130009B00C3180933FF331B78DB00EB181C1925
:10114000154B9C4664442280C6E753089BB2D207E5
:1011500001D501339BB29B02238062E7012B00D0B3
:101160005FE704684F33E55ACB005B1A9B00C31856
:101170000933FF331B78DB00EB181C19024B9C462C
:10118000644422804DE7C046060400000080FFFF53
:101190008FBFFFFF8080FFFF020400000B007F2154
:1011A0001940CB00591A890040182130FF300088BF
:1011B0007047000010B50C00F4235B00C35C012BEA
:1011C0004FD0F4235B000122C2544AB2002A21DB33
:1011D000CB005B1A9B000933FF33C31801219970C0
:1011E0007E3121401970D20F5A7000291AD189001E
:1011F00003689C4661440A881B4B1A401B4B5A40AB
:101200001B4B13439BB20B80F4235B000022C254A0
:10121000002010BD7F212140CB005B1A9B002833AA
:10122000C318DBE7002A0DD0890003689C4661449F
:101230000B88104A134010225A400D4B13439BB2A7
:101240000B80E1E7890003689C4661440A880A4BE9
:101250001A4080235B015A40054B13439BB20B801D
:10126000D2E70220D5E7C046BFBFFFFF1010000045
:101270008080FFFFBF8FFFFF8FBFFFFF10B50C0007
:101280004AB2002A3BDBCB005B1A9B000933FF33D9
:10129000C318002199707F3121401970D20F5A7004
:1012A000F4225200825C012A50D0F4225200012123
:1012B00081545A78002A2AD01A78920001688C4604
:1012C00062441188490606D51188214C0C402149F9
:1012D000214389B211801978890003689C466144D2
:1012E0000B881D4A134030225A401C4B13439BB2BB
:1012F0000B80F4235B000022C254002010BD7F212C
:101300002140CB005B1A9B002833C318C1E71A7831
:10131000920001688C4662441188490406D5118800
:101320000B4C0C400E49214389B211801A7892006F
:1013300003689C46624411880A4B1940C0239B01F4
:101340005940064B0B439BB21380D2E70220D5E7EE
:101350000F0F0000C080FFFFBF8FFFFF8080FFFFE7
:1013600080C0FFFF8FBFFFFF10B501335B0810186F
:101370008022D20094466044002B08D00C784A7832
:101380001202224302800231013B0230F4E710BD19
:10139000F8B505007F240C40E100091B89004118C5
:1013A0008A63CB6300220A640A002932012010708C
:1013B000013A14704F6BBB4234D9DB1BCB63E200A4
:1013C000121B9200AA1832321378002B32D02A68EE
:1013D000E3001B1B9B00EB18283318788300D318FD
:1013E0001B885B0600D48AE0E3001B1B9B00EB1804
:1013F00029331B78002B3ED15033D35AC000181824
:101400008218654B9C4662443E2F2BD97B099BB2C8
:10141000F90601D1013B9BB29B029BB25F4803439B
:1014200013802AE0E200121B9200AA180021D16367
:101430001F00C4E7BFB2E600361BB600AE19B28D7E
:101440003B00B16B2868FFF78FFF2A685023D35AFF
:1014500028363178C9005B189B18514A944663447A
:101460001F802EE07B089BB2F90701D501339BB2A8
:101470009B02138001E0012B37D0E3001B1B9B0074
:10148000EB181A8EBBB2E600361BB600AE19B16B74
:101490002868FFF769FF29363378002B00D067E012
:1014A000E3001B1B9B00EB1828331A7892002B6873
:1014B0009C46624413883B4919403B4B0B439BB20B
:1014C00013802B68E1000C1BA4002D192835297806
:1014D000890059180B88354A134030225A40344B42
:1014E00013439BB20B800020F8BD4F33D35AC0008A
:1014F00018188218284B9C4662441780BDE7E30009
:101500001B1B9B00EB1829331B78002B1ED150337B
:10151000D35AC00018188218214B9C4662443E2FB3
:101520000BD97B099BB2F90601D1013B9BB29B020F
:101530009BB21A48034313800AE07B089BB2F90769
:1015400001D501339BB29B02138001E0012B05D032
:10155000E3001B1B9B00EB18DA8D93E74F33D35A44
:10156000C000181882180E4B9C4662441780EFE7A3
:10157000012BA6D1E3001B1B9B00EB1828331A7824
:1015800092002B689C466244138806491940094B17
:101590000B439BB2138094E7060400000080FFFF1A
:1015A000020400000F0F0000C080FFFFBF8FFFFF8D
:1015B0008080FFFF80C0FFFF10B55C0810188022FC
:1015C000D20094466044002C07D002880A70120AA8
:1015D0004A70013C02300231F5E7DB0701D5038890
:1015E0000B7010BDF0B583B0040001AB00221A806F
:1015F000C0E10388AE4A1340038021685023CB5AD0
:101600002822A25CD2009B185B18AA4A9446634425
:101610001B889B059B0D2364A26B94466344A363C4
:1016200000212000FEF721FF2423E35C002B00D1E2
:10163000A0E1E36B002B00D09CE12422A35C80217D
:1016400049420B43DBB2CC31206843520023A35400
:1016500090E15023C35A84225200A25CD2009B180E
:101660001B18954A944663441B889B059B0D2200DA
:101670000932FF3293612100ED31FF319288FFF78B
:101680009BFF226813888D490B4013802000FEF7D2
:10169000D3FE6FE1150092882969FFF78DFF2B6952
:1016A000AA69944663442B61A3E14B089BB2C90726
:1016B00001D501339BB29B021380B7E1AE008019C4
:1016C00003889BB201AA138013881BB2002B30DB66
:1016D00001AB1B881B0600D44CE123689C46664482
:1016E0003388734A13403380EB005B1B9B00E31885
:1016F00032331B78002B00D0E6E020685033C35A09
:10170000EA00521B9200A218110028310978C90082
:101710005B181B1867498C4663441B889B059B0D0F
:10172000136400D101E11100928D896BFFF71CFE5B
:10173000FBE00388614A13400380EB005B1B9B00C6
:10174000E3181333FF331B78002B23D12068503369
:10175000C25AEB005B1B9B00E3180933FF331B7875
:10176000DB00D3181B18544A944663441B889B051E
:101770009F0D002B3AD0EB005B1B9B00E3181A0077
:101780000D32FF3212881933FF3319683B00FFF71F
:1017900013FF2BE02068EB005B1B9B00E318093371
:1017A000FF331B789A0082181288520458D55022B1
:1017B000825ADB00D3181B183E4A944663441B88A8
:1017C0009B059F0D002B3CD1EB005B1B9B00E3189E
:1017D0000933FF331A78920023689C4662441388C9
:1017E00037491940374B0B439BB213803800E9004F
:1017F000491B890061180A002132FF321368DB1986
:1018000013600B001933FF331A68944667441F6056
:101810001D31FF310B68002B08D0E900491B8900FE
:1018200061181531FF310A68904235D2EB005B1B1D
:101830009B00E3180933FF3319782000FEF706FEFA
:1018400046E7EB005B1B9B00E3181A000F32FF32E8
:1018500012881933FF3319683B00FFF7ADFEB3E779
:101860005022825ADB00D3181B18134A9446634453
:101870001B889B059F0D002BA6D0EB005B1B9B00DC
:10188000E3181A001132FF3212881933FF33196836
:101890003B00FFF791FE97E7EA00521B9200A21867
:1018A0000932FF3211783A002000FFF76FFB0FE793
:1018B0000F8FFFFF02040000060400008F0F0000DE
:1018C0000F0F0000C080FFFF2068EB005B1B9B0038
:1018D000E31828331B789A0082181288520600D425
:1018E000B6E05022825ADB00D3181B186B4A94468C
:1018F00063441B889B059B0DEA00521B9200A218B3
:101900001364002B00D09DE0EB005B1B9B00E318F1
:1019100028331A78920023689C46624413886049F1
:101920001940604B0B439BB2138021685023CA5A65
:10193000EB005B1B9B00E318180028300078C00008
:101940001218521855498C46624412889205920D1D
:101950001A64996B8C4662449A63DB6B002B00D04F
:101960008FE0EB005B1B9B00E31828331978200005
:10197000FEF77BFD20684423C35A9BB26A46D3809E
:101980001BB2002B00DB86E06B46DA880F231500C4
:101990001D401A4200D091E66B4606331B88DB06D9
:1019A00000D426E603889BB201AA138013881B0586
:1019B00000D54EE601AB1B881BB2002BDADA038898
:1019C000394A1340038020685023C35A84225200AE
:1019D000A25CD2009B181B18344A944663441B88AF
:1019E0009B059B0D22000932FF329361002B00D032
:1019F00050E600212000FEF729FD236850229A5A64
:101A00009A182A4B9C46624423000933FF33D96855
:101A10003E2900D849E64B099BB2C90601D1013BDA
:101A20009BB29B029BB222490B43138021680A8818
:101A3000204B1A40C0239B015A401F4B13439BB2BB
:101A40000B8097E71100D28D896BFFF78DFC5BE768
:101A50005022825ADB00D3181B18144A9446634460
:101A60001B889B059B0DEA00521B9200A218136471
:101A7000002B00D148E71100128E896BFFF774FC30
:101A800042E7E900491B89006118283109782000E4
:101A9000FFF77EFC6EE7002003B0F0BD02040000FB
:101AA0000F0F000080C0FFFF8F0F00000604000032
:101AB0000080FFFF8FBFFFFF8080FFFF70B5040035
:101AC00044230268D35A1BB2002B46DB236844220E
:101AD0009A5A520544D4236844229A5A520404D58F
:101AE00044215A5A344802405A52236844229A5A8E
:101AF000920404D544215A5A304802405A5223686D
:101B000044229A5AD20438D4236844229A5A12059D
:101B100013D54422995A2A480140995220684023FB
:101B2000C15A08252943C1522068C15A04252943B6
:101B3000C15223689B5ADB0431D5236844229A5A48
:101B4000920530D4236844229A5AD20504D5442100
:101B50005A5A1C4802405A5270BDFFF743FDB5E780
:101B600044215A5A184802405A522000FEF791FC6C
:101B700000212000FEF72AFFADE74022995A0420F9
:101B800081439952114B21688B522000FEF7A6FC2D
:101B9000216844228B5A0E4803408B52B4E7200040
:101BA000FEF78AFCC9E744215A5A0A4802405A52B1
:101BB0002000FEF767FCC5E7FFBFFFFFFFDFFFFF69
:101BC000FFF7FFFFFFFEFFFFFFFBFFFF00BDFFFF73
:101BD000FFEFFFFFFFFDFFFF10B50C060CD57F24C4
:101BE0002140CC00611A890028314018002A0AD10E
:101BF00082728380002010BDCC00611A89000931F7
:101C0000FF314018F2E701228272C3801B0C03816E
:101C1000F0E710B5041E29D0437F002B1ED002230D
:101C20006377200000F026F8002821D16379002B8B
:101C300018D12368012252421A61226893686021F8
:101C40008B4361690B4393602268936880218B43C7
:101C5000A1690B4393600123637710BD0377FEF7FF
:101C6000EDFDDCE7236822691A61E6E70120F4E76D
:101C70000120F2E70020704710B5041E5ED000235B
:101C800083625D33C35C002B4CD05D230222E2549F
:101C90002268136840218B431360E368E022D2007E
:101CA000934245D90022F02109018B4205D0E02161
:101CB000C9008B4201D00021A162216B002905D10E
:101CC000E021C9008B4236D9022323636368A168EF
:101CD0000B4321690B4361690B4380218900A06993
:101CE00001400B43E1690B43216A0B432168A06A61
:101CF00003430B60618B04230B40616A0B43616BF0
:101D00000B43E1680B43216813434B602268D3699E
:101D10000B490B40D361002323665D330122E2545B
:101D2000002010BD5C330022C254FEF79DFDACE7DD
:101D300080225201B7E701232363C7E70120F0E7C0
:101D4000FFF7FFFF30B5036A046A0125AC43046264
:101D50008469EF35AC43120122430A24A3430B43A9
:101D60008261036230BD000030B5036A1024A343D2
:101D700003628469036A054D2C4012032243A024A8
:101D8000A343090119438261016230BDFF0FFFFFC8
:101D9000836870229343072211431943816070477F
:101DA00003681E4A904206D08022D205904202D09B
:101DB0001B4A904203D1702293434A681343174A47
:101DC00090420FD08022D20590420BD0144A90420C
:101DD00008D0144A904205D0134A904202D0134AC8
:101DE000904203D1124A1340CA681343802293439E
:101DF0004A69134303608B68C3620B688362074BB5
:101E0000984205D0084B984202D0084B984201D125
:101E10000B690363012343617047C046002C0140F6
:101E20000004004000200040004401400048014000
:101E3000FFFCFFFF70B5041E14D03D23C35C002BD4
:101E40000AD03D2502236355210001C9FFF7A8FFF1
:101E500001236355002070BD3C330022C254FEF7BD
:101E600035FDEEE70120F6E730B58468034D2C40E0
:101E70001B0213430B432343836030BDFF00FFFF6E
:101E800010B504003C23C35C012B00D17FE03C2350
:101E90000122C25401330132C254026893683D48A2
:101EA000034093600B68502B4ED019D8202B64D080
:101EB0000DD9302B66D0402B3ED1CA6849682068C6
:101EC000FFF740FF40212068FFF762FF34E0002B5E
:101ED0004ED0102B30D110212068FFF759FF2BE096
:101EE00080225201934222D010D980229201934243
:101EF00022D1CB684A6889682068FFF7B5FF22685D
:101F000091688023DB010B43936015E0602B25D0A3
:101F1000702B11D1CB684A6889682068FFF7A4FF4D
:101F20002268936877218B430B43936004E0226817
:101F3000936807218B4393603D230122E254013BC8
:101F40000022E254002010BDCA6849682068FFF7EB
:101F5000F9FE50212068FFF71BFFEDE7CA684968CA
:101F60002068FFF701FF60212068FFF711FFE3E71A
:101F700000212068FFF70CFFDEE720212068FFF733
:101F800007FFD9E730212068FFF702FFD4E70220DE
:101F9000D9E7C0468800FFFFF0B53C23C35C012BA6
:101FA0001ED03C22012585543D240223035506689A
:101FB00073687027BB437360066873680F683B43A0
:101FC00073600668B3688027BB43B3600668B36874
:101FD00049680B43B3600555002383540020F0BDCE
:101FE0000220FCE770B582B004000368DB072BD544
:101FF000B34B5A680C231340042B1DD0B04B5A68C6
:102000000C231340082B0ED06368012B41D0002B0A
:1020100056D1AB4B1A68AB490A401A601A68AA49F4
:102020000A401A603BE0A64B5B68C0225202134094
:10203000802252029342E7D1A14B1B689B0303D538
:102040006368002B00D136E223689B0777D59C4B51
:102050005B680C221A4262D0994B5A680C231340D9
:10206000082B53D0E368002B00D18AE0944A136810
:1020700001210B43136000F019FC0500904B1B6815
:102080009B0775D400F012FC401B0228F6D90320F0
:1020900018E28B4A116880235B020B43136063686C
:1020A000002B25D000F002FC0500854B1B689B032C
:1020B000CAD400F0FBFB401B6428F6D9032001E2E0
:1020C000052B09D07E4B1A687E490A401A601A68AF
:1020D0007D490A401A60E2E7794B19688022D202F2
:1020E0000A431A601968802252020A431A60D6E72E
:1020F00000F0DCFB0500724B1B689B03A4D500F0CD
:10210000D5FB401B6428F6D90320DBE16C4B5B68F0
:10211000C02252021340802212029342A2D1684B85
:102120001B689B0703D5E368012B00D0C5E1644918
:102130000B68F82293432269D20013430B60236893
:102140001B0744D5E369002B2ED05D4A536A012159
:102150000B43536200F0AAFB0500594B5B6A9B07D7
:1021600035D400F0A3FB401B0228F6D90320A9E1D7
:1021700053490B68F82293432269D20013430B6042
:10218000DDE74F4A136801218B43136000F08EFB9B
:1021900005004B4B1B689B07D1D500F087FB401B0C
:1021A0000228F6D903208DE1454A536A01218B4369
:1021B000536200F07BFB0500414B5B6A9B0706D531
:1021C00000F074FB401B0228F6D903207AE1236853
:1021D0005B0700D480E03A4BDB69DB000BD4384A64
:1021E000D169802040050143D161D3690340019347
:1021F000019B012500E00025344B1B68DB050ED553
:10220000A368012B1FD0002B34D12D4B1A6A01215A
:102210008A431A621A6A03318A431A6218E02B4A07
:10222000116880235B000B43136000F03FFB060046
:10223000264B1B68DB05E3D400F038FB801B6428C9
:10224000F6D903203EE11E4A136A01210B431362B3
:10225000A368002B24D000F029FB0600184B1B6A52
:102260009B0737D400F022FB801B194B9842F5D90D
:10227000032027E1052B09D0114B1A6A01218A435B
:102280001A621A6A03318A431A62E1E70C4B1A6A2E
:1022900004210A431A621A6A03390A431A62D7E709
:1022A00000F004FB0600064B1B6A9B0712D500F0EA
:1022B000FDFA801B064B9842F5D9032002E1C04687
:1022C00000100240FFFFFEFFFFFFFBFF0070004019
:1022D00088130000012D39D02368DB0610D563690F
:1022E000012B39D0053357D1784A536B04218B43E6
:1022F0005363536BF4318B43A169C9000B435363A0
:1023000023689B066DD5714B5A680C2313400C2B28
:1023100060D06E4B5A680C231340082B53D0236AAD
:10232000002B7CD0694A516B80235B020B435363C3
:1023300000F0BCFA0500654B5B6BDB0351D400F089
:10234000B5FA401B0228F6D90320BBE05F4AD369E7
:102350005F490B40D361BFE75C4B5A6B04210A43D2
:102360005A635A6B03390A435A6300F09FFA050017
:10237000564B5B6B9B0706D400F098FA401B022873
:10238000F6D903209EE051494B6BF8229343A26992
:10239000D20013434B63B3E74C4B5A6B04210A43FF
:1023A0005A635A6B03398A435A6300F07FFA050077
:1023B000464B5B6B9B07A3D500F078FA401B0228C5
:1023C000F6D903207EE0414B5B68C02252021340E5
:1023D0009342A4D13D4B5B6BDB0302D5236A012BF7
:1023E0006DD1636A002B6CD0384A51680C220A40C8
:1023F000082A69D0022B25D0344A136835490B408E
:10240000136000F053FA0400304B1B689B0150D559
:1024100000F04CFA001B0228F6D9032052E02B4AA8
:10242000536B2D490B40536300F040FA0500274BD6
:102430005B6BDB03D5D500F039FA401B0228F6D9D7
:1024400003203FE0214A136822490B40136000F04B
:102450002DFA05001D4B1B689B0106D500F026FADE
:10246000401B0228F6D903202CE0184BDA6A0F2112
:102470008A43216B0A43DA625A6818490A40E16AC2
:10248000A06A01430A435A601968802252040A4331
:102490001A6000F00BFA04000C4B1B689B0106D479
:1024A00000F004FA001B0228F6D903200AE00020FD
:1024B00008E0002006E0012004E0012002E0012005
:1024C00000E0002002B070BD0120FBE700100240D8
:1024D000FFFFFFEFFFFFFFFEFFFFFEFFFF7FC2FFDB
:1024E00010B588B004AA204B13CB13C21B6813602D
:1024F0006A461E4B13CB13C21B6813601C4B5A68F1
:102500000C231340082B08D00C2B2AD0042B02D00C
:10251000184808B010BD1848FBE7910C0F2319406C
:1025200004A8445C1249C96A0B406946C95CC023CF
:102530005B021A4080235B029A4208D0C0235B02F0
:102540009A4209D00B48FDF7BBFD6043E1E70A481A
:10255000FDF7B6FD6043DCE70848FDF7B1FD6043D9
:10256000D7E70648D5E7C046E0370008F43700084B
:102570000010024000127A00002D3101006CDC02D4
:1025800070B504000D005A4B1A68012313408B42AA
:102590000AD257490B68012293432B430B600B6807
:1025A0001A40AA4200D09CE023689B0706D5514AF6
:1025B0005368F0218B43A1680B4353602368DB070A
:1025C00064D56368012B09D0022B29D0032B2DD0B1
:1025D000484A1268920706D4012081E0454A1268F1
:1025E000920300D47FE043494A68032082431343A7
:1025F0004B6000F05BF906006368012B1CD0022BD6
:1026000028D0032B34D03B4B5B680C221A423DD0C0
:1026100000F04CF9801B384B9842F4D903205FE05E
:10262000344A12689201DED4012059E0314A526BDB
:10263000D203D8D4012053E02E4B5A680C23134008
:10264000042B23D000F032F9801B2B4A9042F3D99F
:10265000032045E0274B5A680C231340082B15D064
:1026600000F024F9801B244B9842F3D9032037E073
:10267000204B5A680C2313400C2B07D000F016F99E
:10268000801B1D4B9842F3D9032029E0184B1A6890
:1026900001231340AB4209D915490B68012293432A
:1026A0002B430B600B681A40AA421ED123685B07BC
:1026B00006D5104A536811490B40E1680B4353603B
:1026C000FFF70EFF0B4B5A6812090F2313400C4AF9
:1026D000D35CD8400B4B1860002000F0BDF8002000
:1026E00070BD0120FCE70120FAE70120F8E7C046B1
:1026F000002002400010024088130000FFF8FFFF96
:102700000838000860000020014B18687047C04678
:102710006000002070B582B004000368DB0337D589
:10272000474BDB69DB005DD4454AD1698020400519
:102730000143D161D36903400193019B0125414BC2
:102740001B68DB0550D53E4B1A6AC0239B00110065
:1027500019401A4213D0626813408B420FD0384B95
:10276000186A394A02401E6A8021490231431962BF
:10277000196A364E314019621A62C30748D4304A8A
:10278000136A31490B4061680B431362012D4ED02F
:102790002368DB0706D52A4A136B03218B43A16804
:1027A0000B43136323689B0606D5254A136B102140
:1027B0008B43E1680B43136323689B0306D5204AD0
:1027C000136B80218B4361690B43136323685B05A3
:1027D00032D51B4A136B40218B4321690B43136392
:1027E00000202AE00025AAE7164A116880235B0032
:1027F0000B43136000F05AF80600124B1B68DB0510
:10280000A1D400F053F8801B6428F6D9032014E00B
:1028100000F04CF806000A4B1B6A9B07AFD400F08F
:1028200045F8801B0A4B9842F5D9032005E0D3698F
:1028300008490B40D361ABE7002002B070BDC04631
:102840000010024000700040FFFCFFFFFFFFFEFF92
:1028500088130000FFFFFFEF10B50400FFF754FFDF
:10286000FA218900FDF72CFC00F030F9012000224C
:102870002100404200F0F0F8002010BD10B5064ADB
:10288000136810210B4313600020FFF7E5FFFDF7ED
:10289000BDFF002010BDC04600200240024A136860
:1028A000013313607047C04600110020014B1868C7
:1028B0007047C04600110020F0B5D6464F46464648
:1028C000C0B582B0002371E084683C40A446CC6867
:1028D000B44065462C4384604468944322004C68AD
:1028E0002409A446012465462C409C4014434460BE
:1028F000C26817408A68B2403A43C2604A68D20050
:1029000053D5504CA66901221643A661A469224002
:102910000192019A9A08941CA4004B4EA7590324D3
:102920001C40A4000F26A640B7439026F605B042EF
:102930007ED0464EB0427DD0454EB04276D0052680
:10294000A64034003C43023292003F4E9451414A2B
:1029500014684A46D24326004D46AE434D68ED0307
:1029600002D54D462C4326003A4C2660646826006A
:1029700016404D68AD0302D54D462C432600354C1C
:102980006660A468260016404D68ED0202D54D46EB
:102990002C4326002F4CA660E46822404D68AD020F
:1029A00001D54A4622432B4CE26001330C682200D9
:1029B000DA4041D001229A4025001540A946144230
:1029C000F3D04C68022C01D0122C0ED1DC08083454
:1029D000A400275807261E40B6000F25B540AF4378
:1029E0000D69B5402E003E4326500468A4465E00A3
:1029F0000324A2462700B740B846FF436546444635
:102A0000A543AC464C68554625402C00B44065466D
:102A10002C4304604C68651E012D00D854E7112C2E
:102A200000D151E7122C00D062E74DE7022687E77C
:102A3000002685E7012683E702B01CBC9046994634
:102A4000A246F0BD00100240000001400004004812
:102A5000000800480004014070B5002811DB83081D
:102A6000134DC0339B005C5903221040C000FC3260
:102A700016008640B44389010A40824022435A51DD
:102A800070BD0F230340083B9B0806339B00094A97
:102A9000944663445D6803242040C000FF22140074
:102AA0008440A54389010A4082402A435A60E7E7EF
:102AB00000E100E000ED00E01F2318401E3B8340D2
:102AC000014A13607047C04600E100E001388023EE
:102AD0005B0498420FD2094A50600948036A1B02FE
:102AE0001B0AC02109060B430362002393600733CE
:102AF0001360002070470120FCE7C04610E000E0B2
:102B000000ED00E0114B1A6801210A431A605A686F
:102B10000F4802405A601A680E4802401A601A684C
:102B20000D4802401A605A680C4802405A60DA6A3E
:102B30000F208243DA621A6B094802401A635A6B0B
:102B40008A435A6300229A607047C04600100240D0
:102B50000CB8FF08FFFFF6FEFFFFFBFFFFFFC0FF03
:102B60002CFEFFFF10B5002816D085239B00C3580C
:102B7000002B03D085239B000024C450002902D0E1
:102B800084239B00C150FE235B000121C1540270CD
:102B9000FDF7BAFC002010BD0220FCE7002904D09C
:102BA00085239B00C150002070470220FCE710B530
:102BB000FDF7ECFC002010BD10B585239B00C35829
:102BC000002B06D01B689847002800D110BD0220BA
:102BD000FCE70220FAE710B585239B00C3585B6829
:102BE0009847002010BD000070B5040082239B00B0
:102BF000C518280000F02FF9FA235B000122E250EB
:102C0000124BE25A163BE2501033E15CEA3BFF3BC9
:102C10000B40012B0FD0022B12D0002B05D07F23AD
:102C200099432000FDF7D0FC03E02900200000F0CC
:102C3000B5FA002070BD2900200000F0D3FAF8E7B3
:102C40002900200000F0ECFAF3E7C0460E02000075
:102C500010B50400130000292AD1FA22520082582C
:102C6000032A01D0002010BD421DFF329168D268B6
:102C700091420ED885239B00C3581B69002B04D0BA
:102C8000FE225200825C032A10D0200000F0B3FB29
:102C9000E8E7891A0530FF3081608A4200D90A00CE
:102CA00092B21900200000F09EFBDBE79847ECE7AA
:102CB00085239B00C3589B69002BD3D0FE22520072
:102CC000825C032ACED19847CCE770B5040013008C
:102CD00000294FD1FA2252008258022A06D08023BE
:102CE0009B00E35C012B40D0002070BDC269056AE7
:102CF000AA421CD8866929003000FDF71DFA002978
:102D000006D1B54204D8FC235B00E3589E421BD396
:102D100085239B00E358DB68002B04D0FE22520081
:102D2000A25C032A1ED0200000F071FBD7E7521BE3
:102D3000C26192B2190000F03EFB00230022002184
:102D40002000FDF77EFCCAE70022200000F033FBE4
:102D5000FC235B000022E250002300212000FDF74D
:102D600070FCBCE720009847DDE780239B00002231
:102D7000E254B9E785239B00C3585B69002BB3D0AD
:102D8000FE225200825C032AAED19847ACE770B5B0
:102D90000400402300220021FDF701FC4025882388
:102DA0005B00E550D03B002280212000FDF7F7FBBF
:102DB0002562FE235B000122E2541C33E358002B02
:102DC00006D085239B00E3585B6821792000984753
:102DD000002070BD017400207047FE235B00C15CC1
:102DE000FE22FF328154FA3AFF3AC2540020704763
:102DF000FE23FF33C25C013BC2540020704710B574
:102E0000FE235B00C35C032B01D0002010BD852393
:102E10009B00C358DB69002BF7D09847F5E7030008
:102E200000201A78002A03D00130C0B20133F8E73D
:102E3000704710B504004B88012B00D010BD8123D2
:102E40009B000122C2501033C3589B689847200052
:102E500000F0D1FAF2E70B7803704B7843708B786F
:102E6000CA7812029B1843800B794A7912029B1888
:102E700083808B79CA7912029B18C380704710B582
:102E800004008021FDF7A0FB00212000FDF79CFB42
:102E900010BD000030B583B004000D004A88130A4D
:102EA000072B00D98EE09B004F49CB589F468423C7
:102EB0009B00C3581B68007C6A46911D98476B466F
:102EC00006331B88002B03D0EA88002A00D07EE05E
:102ED00003B030BD037C002B09D185239B00C35870
:102EE0009B6A6A46901D984702234370E7E7852353
:102EF0009B00C358DB6A6A46901D984702234370C3
:102F0000DDE7D2B2052A39D89200384B9B589F464C
:102F100084239B00C3585B68007C6A46911D9847D8
:102F2000CDE784239B00C3589B68007C6A46911DB3
:102F30009847C4E784239B00C358DB68007C6A463B
:102F4000911D9847BBE784239B00C3581B69007CF5
:102F50006A46911D9847B2E784239B00C3585B697A
:102F6000007C6A46911D9847A9E784239B00C358BB
:102F70009B69007C6A46911D9847A0E72900FFF7EE
:102F80007EFFA5E7037C002B07D185239B00C35858
:102F90005B6B6A46901D984791E72900FFF76FFF2A
:102FA00096E7037C002B09D185239B00C3581B6B3C
:102FB0006A46901D98470723437080E72900FFF772
:102FC0005EFF85E729002000FFF759FF80E7191C05
:102FD000934200D9111C8AB26B46D98001002000AF
:102FE00000F0DBF974E7C0461838000838380008EC
:102FF00070B504008B88002B22D1CB88002B1FD109
:103000008B787F251D40FE235B00C35C032B0FD014
:10301000FF235B00C5542900FDF701FB200000F0F1
:10302000EAF9002D07D0FE235B000222E2540AE0F9
:10303000FFF725FF07E0FE235B000122E25402E0D8
:103040002000FFF71CFF70BD70B504000D008978EB
:10305000284B197001290AD8FE235B00C35C022BA0
:1030600009D0032B1ED02900FFF709FF02E0290039
:10307000FFF705FF70BD002911D04160FE235B0002
:103080000322C254FFF798FD022803D0200000F06D
:10309000B2F9EFE729002000FFF7F1FEEAE700F0C0
:1030A000AAF9E7E7002911D0436899421ED0D9B2A6
:1030B000FFF791FD0F4B197861602000FFF77CFD51
:1030C00002280ED0200000F096F9D3E7FE235B0023
:1030D0000222C2544160FFF77EFD200000F08BF910
:1030E000C8E729002000FFF7CAFEC3E700F083F914
:1030F000C0E7C046B003002010B5CB88012B09D132
:10310000FE235B00C35C022B07D0032B0DD0FFF71F
:10311000B6FE01E0FFF7B3FE10BD0023836001009F
:103120000831012200F039F9F6E7011D012200F013
:1031300034F9F1E710B5FE235B00C35C023B012BC1
:103140000ED80123C36081239B00C358002B01D0FC
:103150000323C36001000C31022200F01EF910BDF0
:10316000FFF78DFEFBE710B50400FE235B00C35C98
:10317000023B012B0ED84B88012B0DD181239B00E4
:103180000022C2501033C3589B689847200000F0BB
:1031900032F901E0FFF773FE10BD000010B54B7867
:1031A000092B19D89B000E4AD3589F46FFF772FE91
:1031B000002010BDFFF71CFFFAE7FFF745FFF7E718
:1031C000FFF79AFFF4E7FFF7B5FFF1E7FFF731FEEE
:1031D000EEE7FFF7C8FFEBE7FFF751FEE8E7C04671
:1031E0005038000870B504000D00FE235B00C35C7E
:1031F000032B11D10B79012B0BD885239B00C358CE
:103200009B689847EB88002B08D1200000F0F3F86A
:1032100004E0FFF734FE01E0FFF731FE002070BD4F
:1032200070B505000C008888097922786023134066
:10323000202B08D06378012B37D0032B0BD0002B29
:103240005BD0002070BDF533FF33EB589B68210045
:1032500028009847F5E7FE235B00EB5C022B06D0C5
:10326000032B0CD021002800FFF709FEE9E7002915
:10327000E7D08029E5D02800FDF7A6F9E1E76388CB
:10328000002B03D1002901D080290AD185239B007E
:10329000EB589B68210028009847280000F0ABF805
:1032A000CFE72800FDF790F9F0E7FE235B00EB5C29
:1032B000022B06D0032B0CD021002800FFF7DFFDE6
:1032C000BFE70029BDD08029BBD02800FDF77CF9DD
:1032D000B7E76388002BB4D14B0603D1280000F078
:1032E0008AF8AEE72800FDF778F985239B00EB58B4
:1032F0009B68210028009847F0E7FE235B00EB5C09
:10330000022B06D0032B0BD021002800FFF7B7FDBE
:1033100097E74B0600D194E72800FDF755F990E7B1
:10332000030612D47F240C40103424012C190434D9
:103330002800FDF75BF900280ED00123236002224C
:103340002100280000F029F87BE77F240C4001349D
:1033500024012C190434EBE700232360EFE770B558
:1033600004000D001600002816D0FFF758FD431C7E
:103370005B009BB233802B7003236B70013B08E032
:1033800001345A1CD2B2E8540233DBB2AA1800212D
:10339000117020780028F3D170BD10B51300FA2207
:1033A0005200022484508361C3610A000021FDF7AA
:1033B0003FF9002010BD10B513000A000021FDF7F1
:1033C00037F9002010BD10B51300FA225200032473
:1033D0008450EC3A8350043283500A000021FDF7F8
:1033E00030F9002010BD10B513000A000021FDF7D0
:1033F00028F9002010BD10B5FA235B000422C2504A
:10340000002300220021FDF713F9002010BD10B5A4
:10341000FA235B000522C250002300220021FDF7A1
:1034200010F9002010BD86239B00C358002B05D047
:103430008522920000219950002070470220FCE76D
:1034400010B586239B00C4580433C358002B0DD0FD
:1034500080229200A05CFF2808D09B68044AA25CEE
:103460002100984780239B00FF22E254002010BDDA
:103470000102000043230380004870479C000020A5
:103480004323038000487047E0000020432303806B
:1034900000487047300100200A230380004870472D
:1034A0002401002070B504008625AD004659FDF7C3
:1034B000D1F883239B00F0506359002B0BD0872356
:1034C0009B00E358DB6883229200B118083AB05899
:1034D0009847002070BD0220FCE7000070B5050091
:1034E0000C0086239B00C6580B78602211001940FF
:1034F0001A4229D020292AD1E288002A1BD05BB2A7
:10350000002B0CDA87239B00C3589B68607831003E
:103510009847E28831002800FFF73FFF17E0627804
:1035200080239B00F254E2880C4BF254E288310075
:10353000FFF749FF0BE087239B00C3589B68607827
:1035400000222100984702E063780A2B01D0002076
:1035500070BD01220249FFF720FFF8E701020000D9
:10356000B103002070B504008121FDF724F801218A
:103570002000FDF720F882212000FDF71CF88623AB
:103580009B00E358002B0BD087239B00E3585B681C
:1035900098478625AD006059FDF768F80023635110
:1035A000002070BD70B50400037C002B33D1802552
:1035B000AD002B0002228121FCF7F1FF2B0002223B
:1035C00001212000FCF7EBFF0823032282212000C9
:1035D000FCF7E5FF87208000FDF744F8050086230F
:1035E0009B00E05000282DD00433E3581B68984717
:1035F000002385229200AB500432AB50267C002E73
:1036000015D18033143AAA589B0001212000FDF700
:1036100018F8300070BD402302228121FCF7BFFF63
:103620004023022201212000FCF7B9FFCCE78123CF
:103630009B00EA58C53BFF3B01212000FDF701F844
:103640000026E6E70126E4E7002904D087239B0053
:10365000C150002070470220FCE786239B00C3581E
:10366000822080001950842189005A500020704720
:1036700086239B00C258143BD1500020704710B5E0
:1036800086239B00C258002A15D0037C002B09D149
:1036900080338121890052589B000121FCF7D1FF22
:1036A000002010BD81239B00D258C53BFF3B012168
:1036B000FCF7C7FFF4E70220F3E700001348854654
:1036C00013480168090E134A914205D11248134963
:1036D000016013481349016013481449144A002338
:1036E00002E0D458C4500433C4188C42F9D3114AB0
:1036F000114C002301E013600432A242FBD3FFF718
:1037000001FA00F01DF8FCF70BFEFEE700180020A0
:10371000040000001F00000018100240010000001B
:1037200000000140000000000000002074010020A3
:10373000803800087401002004110020FEE700001A
:1037400070B500260C4D0D4C641BA410A64209D187
:10375000002600F021F80A4D0A4C641BA410A64272
:1037600005D170BDB300EB5898470136EEE7B300C2
:10377000EB5898470136F2E77838000878380008A7
:10378000783800087C38000803008218934200D182
:10379000704719700133F9E7F8B5C046F8BC08BCAA
:1037A0009E467047F8B5C046F8BC08BC9E467047B8
:1037B0005965746943414E2D464400005265766F49
:1037C0006C76650043444320436F6E666967000072
:1037D00043444320496E746572666163650000006E
:1037E00002030405060708090A0B0C0D0E0F101042
:1037F000000000000102030405060708090A0B0C7B
:103800000D0E0F100000000000000000000000007E
:103810000102030406070809C42F0008AE2E0008A1
:10382000D42E0008022F0008C42F0008C42F00085F
:10383000842F0008A22F0008102F0008222F000854
:10384000342F0008462F0008582F00086A2F000860
:10385000C6310008D2310008D8310008CC31000848
:10386000D8310008B4310008AC310008D831000864
:08387000C0310008BA31000864
:0438780079010008CA
:04387C0051010008EE
:10388000710600087D060008350700080D070008CE
:10389000F906000851070008790700081201000224
:1038A000020200404057605700020102030100007D
:1038B000040309041A0300000000000000000000D7
:1038C00000000000000000000000000000000000F8
:1038D000C5070008A1070008A5070008A9070008F8
:1038E00000127A00A535000865350008DD340008AF
:1038F000000000004134000827340008A534000807
:1039000000000000000000000000000081340008FA
:10391000753400088D34000899340008090243000A
:10392000020100C032090400000102020100052466
:1039300000100105240100010424020205240600F0
:10394000010705820308001009040100020A0000B3
:103950000007050102400000070581024000000049
:1039600009024300020100C0320904000001020202
:1039700001000524001001052401000104240202B5
:103980000524060001070582030800100904010050
:10399000020A00000007050102000200070581027B
:1039A000000200000A0600020000004001000000C2
:1039B00009074300020104C03209040000010202A9
:1039C0000100052400100105240100010424020265
:1039D0000524060001070582030800FF0904010011
:1039E000020A0000000705010240000007058102ED
:0439F0004000000093
:04000005080036BDFC
:00000001FF
